:1000000008308A00002800005424551D4324552739
:10001000C820541000005424551D542455192000A4
:100020005424551D5424D51920005424551D5424FE
:10003000551A20005424551D5424D51A2000542448
:10004000551D5424551B20005424551D5424D51BE4
:100050002000D322D4183A102010202A412A201040
:100060002000D32254193A102010202A412A2010AF
:1000700020005739693A6510C429B119B01B3A10EC
:1000800041326439E539731DA01230195810C4305B
:10009000F4303A102518322C0A00D2326132202274
:1000A000D3183318371DA0123019581D2518322CBB
:1000B000BA12301958102518322CAF123019D8172F
:1000C00032182518322C2022E13C3A102518322C07
:1000D0000A00C429B119B01BA024EE34F4346136EF
:1000E000693D65320A002010201020105024552A46
:1000F0003A10201000012010201020102010201095
:10010000201020102010201020002010C7244F1D88
:10011000200020100001D322D42FCC2443243A10F5
:10012000000120100001201043245527C82054103E
:1001300000012010542455192000202AC82A331009
:100140000001202AC82A34100001202AC82A3510AC
:10015000000120105424551B2000202AC82A3710E3
:100160000001CE23C12C3A002010201020102010B6
:100170002000542441274700201000012027C126D9
:10018000200032182000201020102010A029452A1D
:10019000311D2010200020102010201020102010D1
:1001A0002010201020102010201000012021412AB2
:1001B0002000202A412A200020102010D322D41809
:1001C0002028C82A541D00012010201020102010C3
:1001D00020102010201020102010201000012010CE
:1001E0002010A029452A3110C7244F1D20100001DE
:1001F000201020102010201020102010201020107F
:10020000201020100001201020102010A029452AC5
:10021000321D20102000201020102010201020104F
:100220002010201020102010201000012021412A31
:100230002000202A412A200020102010D322541907
:100240002028C82A541D0001201020102010201042
:10025000201020102010201020102010000120104D
:100260002010A029452A3210C7244F1D201000015C
:1002700020102010201020102010201020102010FE
:10028000201020100001A0308400831300080319FF
:1002900056290230F800F701F70B4C29F80B4B29CF
:1002A0009730F700F70B5229800B49290800831675
:1002B00027185E29831288116029831683128815F6
:1002C00083168811A7186829831208126A298316D1
:1002D00083120816831608122719722983128812AE
:1002E000742983168312881683168812A7197C290D
:1002F000831208137E2983168312081783160813A6
:100300000000831208158316081186298729831295
:10031000081183160811831208008316A801881596
:1003200000308312881901308316A80408160030A3
:100330008312081A0130F7000310F70D77088316AF
:10034000A804881600308312881A0130F700F70DD0
:10035000F70DFC30F70577088316A804081700305E
:100360008312081B0130F700F70DF70DF70DF83079
:10037000F70577088316A8042808F80083120800F8
:1003800083160811081088108312081083160810AD
:100390008815081688160817831288148316881083
:1003A00000008312081583160811000083128D21A6
:1003B00078088316A700831208118316081100001D
:1003C0008312081583160811E52983128D217808F8
:1003D0008316A600831208118316081188110812CB
:1003E00088120813270EF700F030F7057708260467
:1003F000F8007808A600A61BC829A408031D042A33
:1004000083120810062A8316831208148316081014
:1004100000008312881083168810000083120811D0
:1004200083160811250EA6000F30A6052608A70082
:1004300083125721831625080F39A600A7008312BF
:10044000572108002830FB000C30FC000130FD0073
:100450000630FE0008118316081183120810831657
:1004600008108312881083168810881108128812C9
:1004700008130811081088100F30A00083124321C0
:100480000130F6007608033C031C522A0330831621
:10049000A7008312572105308316A0008312432141
:1004A000F60A422A02308316A7008312572105302C
:1004B0008316A00083124321F6017608033C031C37
:1004C0006F2A7B3076078400831300088316A00010
:1004D000A4012008A5008312C021F60A5D2A8A150E
:1004E0000A12A8288316210B762A792A4030A20006
:1004F0007A2AA20101302002A20722088038A30034
:10050000A4012308A5008312C02108007E08073A31
:100510000319942A0B3A03199B2A063A0319A72AAE
:10052000023A0319AF2AB62A01308316A000A100AF
:1005300083127222BD2A8316A4010130A500831202
:10054000C02102308316A00083124321BD2A01304E
:100550008316A0000230A10083127222BD2A8316E6
:10056000A4011030A5008312C021BD2A01308316DA
:10057000A4007E08A5008312C021080094138C11EA
:100580007C0893000230941BCC2A83161419C62AC7
:100590000030111B01308312F80008000B0883168D
:1005A000A00083128B13831603178C170C14000002
:1005B00000000313A01FDF2A83128B178316031872
:1005C000192B831203170C087F3983160313A0001D
:1005D000831203170D0883160313A1008312031758
:1005E0000F0883160313A200200883120C1EF62A9C
:1005F000990083162108831203178D0083160313B5
:100600002208831203178F0003130B088316A3001D
:1006100083128B13831603178C170C140000000031
:100620000313A31F162B83128B178316FC0B192B96
:10063000482B831203170C0D0E0D7F3983160313FD
:10064000A000831203170D0883160313A100831261
:1006500003170F0883160313A200200883120C1E31
:100660002F2B990083162108831203178D00831600
:1006700003132208831203178F008D0A03198F0AB0
:100680000310FC0B442B462B0313CE2A83160313B3
:1006900083120800FD1B5D2B0F30F7007C0EF70561
:1006A0000A3077020318572B3030F707592B7D0893
:1006B000F70777080C1E5A2B99000F30FC050A30FB
:1006C0007C020318652B3030672BFD137D08FC0777
:1006D0007C080C1E692B9900080083161114111850
:1006E0006F2BD030FC008312BE227608FC00BE22A5
:1006F0007B08FC00BE228316111511197D2B3930A1
:10070000831203178D0000308F0003101730FC0098
:100710000313CE227608FC003730FD004A23463012
:1007200003178D0000308F0003140730FC00031303
:10073000CE227B08FC003730FD004A230A300C1E15
:100740009F2B99000800F601FB016D230230F60093
:10075000FB016D23693003178D0000308F000313F8
:100760000B08FB008B13831603178C170C14000067
:100770000000FB1FC02B831203138B178316031774
:1007800083120C087F390319FE2BFB000D08FC00B7
:100790000F08FD007B0803130C1ECC2B99007C086E
:1007A00003178D007D088F0003130B08FE008B13C9
:1007B000831603178C170C1400000000FE1FE52B96
:1007C000831203138B178316031783120C0D0E0D60
:1007D0007F390319FE2BFB000D08FC000F08FD00FC
:1007E0007B0803130C1EF22B99007C0803178D0065
:1007F0007D088F008D0A03198F0AAF2B03138A150A
:100800000A12B028F701F8017E0803108316201899
:10081000F707F70CF80CA018F707F70CF80C2019DD
:10082000F707F70CF80CA019F707F70CF80C201ACB
:10083000F707F70CF80CA01AF707F70CF80C201BB9
:10084000F707F70CF80CA01BF707F70CF80C83124E
:1008500008000B08FB008B13831603178C170C146E
:1008600000000000FB1F392C831203138B17831623
:10087000031783120C087F390319772CFB000D082E
:10088000FC000F08FD007B08FE00031386227C0895
:1008900003178D007D088F0003130B08FE008B13D8
:1008A000831603178C170C1400000000FE1F5D2C2C
:1008B000831203138B178316031783120C0D0E0D6F
:1008C0007F390319772CFB000D08FC000F08FD0091
:1008D0007B08FE00031386227C0803178D007D0829
:1008E0008F008D0A03198F0A0313292C0317031392
:1008F00008007D08F8017C020318812C7C08F700B1
:100900008D2CF7010830FE00FC0DF70D7D087702F5
:100910000318F700F80DFE0B842C08007808760801
:10092000FC006430FD0079247708F6007808303048
:10093000031DA12CFB1CA82CFB19A82C7B1A203012
:10094000A42CFB117B127B14F8077808FE0086228A
:100950007608FC000A30FD0079247708F600780854
:100960003030031DB92CFB19BD2C7B1CBD2C7B1A10
:100970002030F8077808FE0086223030F607760827
:10098000FE00862208001413831691159119C62CB7
:1009900077189112771C91161116111ACD2C83120B
:1009A0001308F8000800831611141118D52CD03044
:1009B000FC008312BE22FC01BE2283169114911802
:1009C000DF2CD130FC008312BE220130F700C3249B
:1009D0007808E3000130F700C3247808E50001300F
:1009E000F700C3247808E7000130F700C324780833
:1009F000EF000130F700C3247808E9000130F70068
:100A0000C3247808EB00F701C3247808ED008316AF
:100A100011151119092D4D30831203178D00003067
:100A20008F0003100D30FC000313CE226708FC007A
:100A30003730FD004A233A300C1E1C2D9900650802
:100A4000FC003730FD004A233A300C1E252D99005A
:100A50006308FC003730FD004A2320300C1E2E2D89
:100A600099006908FC003730FD004A232F300C1E26
:100A7000372D99006B08FC003730FD004A232F30DA
:100A80000C1E402D990032300C1E442D9900303040
:100A90000C1E482D99006D08FC003730FD004A23DC
:100AA000633003178D0000308F0003100630FC0008
:100AB0000313CE226F08FC003730FD004A230A30B2
:100AC0000C1E602D9900080080080319792DFC0187
:100AD0000408FB007C10831B7C140008FE008622A7
:100AE0007B08840083137C188317840A0319850A02
:100AF000642D080063087039F700770EE4000F30AA
:100B0000E405E30565087039F700770EE6000F305D
:100B1000E605E50567083039F700770EE8000F3085
:100B2000E805E70569083039F700770EEA000F306D
:100B3000EA05E9056B081039F700770EEC000F3075
:100B4000EC05EB056D08F039F700770EEE000F307D
:100B5000EE05ED0530306307B20030306407B100B8
:100B600030306507AF0030306607AE0030306707C1
:100B7000AC0030306807AB0030306D07BD0030305E
:100B80006E07BC0030306B07B80030306C07B70020
:100B900030306907B50030306A07B4000130831681
:100BA000A000A100831272222230840083136425E6
:100BB00001308316A0000230A1008312722201309E
:100BC0006F02F93E03181D2E073E292E043003172D
:100BD0008D0000308F00031329241D2E0B300317C6
:100BE0008D0000308F00031329241D2E10300317B1
:100BF0008D0000308F00031329241D2E153003179C
:100C00008D0000308F00031329241D2E1A30031786
:100C10008D0000308F00031329241D2E1F30031771
:100C20008D0000308F00031329241D2E243003175C
:100C30008D0000308F00031329240A308316A00092
:100C40000230A100831272223430840083136425A1
:100C500008000A108A140A158207E62DEE2DF62DDB
:100C6000FE2D062E0E2E162E65080F39FB00650E82
:100C7000F7000F30F7057708FD00FE000A308316F5
:100C8000A0008312022478087B077002031D612EE6
:100C900067080F39FB00670EF7000F30F70577087C
:100CA000FD00FE000A308316A0008312022478089B
:100CB0007B077102031D612EE308031D612E2118BD
:100CC000861565080F39FB00650EF7000F30F70534
:100CD0007708FD00FE000A308316A000831202246C
:100CE00078087B077202031D902E67080F39FB00FE
:100CF000670EF7000F30F7057708FD00FE000A3099
:100D00008316A0008312022478087B077302031D58
:100D1000902EE308031D902EA11C902E0C309704FA
:100D20008A150A12D92D15308316A0000130A100B2
:100D300083127222211CC12E7008FC000A30FD00B3
:100D4000792430307707CC007008FC000A30FD00B1
:100D5000792430307807CB007108FC000A30FD00A0
:100D6000792430307707C9007108FC000A30FD0093
:100D7000792430307807C8003F308400831364251D
:100D8000C82E293003178D0000308F00031329244B
:100D900015308316A0000230A10083127222A11C1C
:100DA000FD2E7208FC000A30FD00792430307707F0
:100DB000DE007208FC000A30FD007924303078072C
:100DC000DD007308FC000A30FD007924303077071D
:100DD000DB007308FC000A30FD007924303078070E
:100DE000DA0015308316A0000230A10083127222AF
:100DF0005130840083136425042F313003178D0094
:0E0E000000308F00031329248A150A12DF2DFB
:1010000003081F3983000C3083169900A230980022
:10101000903083129800FF30A000A015200883169E
:101020008700831220162008831687001330930050
:10103000283083129400831694171413CF30920033
:101040000530831292002011200883168700831236
:101050000711683095009701F501F40183161F14FC
:101060009F141F159F1107309C0083135430831267
:10107000A2004930A3004D30A4004530A5003A300D
:10108000A6002030A700A800A900AA00AB00AC0071
:101090003A30AD002030AE00AF003A30B000203022
:1010A000B100B200B301B400B5002F30B60020305B
:1010B000B700B8002F30B9003230BA003030BB0072
:1010C0002030BC00BD00BE015330BF004530C00021
:1010D0005430C1003130C2003A30C3002030C40067
:1010E000C500C600C7003A30C8002030C900CA0099
:1010F0003A30CB003030CC00CD002030CE00CF00D5
:10110000D0015330D1004530D2005430D3003230BA
:10111000D4003A30D5002030D600D700D800D9000E
:101120003A30DA002030DB00DC003A30DD003030CD
:10113000DE00DF002030E000E100E20183168113D1
:10114000831286010730831686008A118312222AB1
:101150008A150C30FE008A1186228A158A11A32B6B
:101160008A150618A42B6608FE000A308316A00014
:101170008A11831202248A157808E5076808FE00A0
:101180000A308316A0008A11831202248A15780877
:10119000E7076A08FE000A308316A0008A1183124E
:1011A00002248A157808E9076C08FE000A308316C5
:1011B000A0008A11831202248A157808EB076E08B2
:1011C000FE000A308316A0008A11831202248A15B9
:1011D0007808ED0701308316A000A1008A11831260
:1011E00072228A15733003178D0000308F008A1128
:1011F000031329248A1501308316A0000230A100B0
:101200008A11831272228A157B3003178D000030F9
:101210008F008A11031329248A15C8308316A00071
:101220008A11831243218A1586181729E50A650851
:101230003B3C03181C29E5010A308316A00002304C
:10124000A1008A11831272228A156508F600013006
:10125000FB008A118E248A1506182F293729C830D9
:101260008316A0008A11831243218A15142907309E
:101270008316A0000130A1008A11831272228A1500
:10128000853003178D0000308F008A110313292445
:101290008A150A308316A0000230A1008A11831239
:1012A00072228A15893003178D0000308F008A1151
:1012B000031329248A15C8308316A0008A118312CB
:1012C00043218A1586186529E70A6708173C031821
:1012D0006A29E7010A308316A0000230A1008A11B2
:1012E000831272228A156708F6000130FB008A110A
:1012F0008E248A1506187D298529C8308316A000FA
:101300008A11831243218A15622909308316A000AD
:101310000130A1008A11831272228A158B300317C3
:101320008D0000308F008A11031329248A150A309A
:101330008316A0000230A1008A11831272228A153E
:10134000913003178D0000308F008A110313292478
:101350008A15C8308316A0008A11831243218A158A
:101360008618B329EF0A6F08073C0318B929013022
:10137000EF0006308316A0000230A1008A1183120C
:1013800072228A1501306F02F93E03180E2A073EB9
:10139000E92D933003178D0000308F008A1103135D
:1013A00029248A150E2A993003178D0000308F00EA
:1013B0008A11031329248A150E2A9D3003178D00E4
:1013C00000308F008A11031329248A150E2AA130B8
:1013D00003178D0000308F008A11031329248A150A
:1013E0000E2AA53003178D0000308F008A110313D9
:1013F00029248A150E2AA93003178D0000308F008A
:101400008A11031329248A150E2AAD3003178D0083
:1014100000308F008A11031329248A150618112A17
:10142000192AC8308316A0008A11831243218A1515
:10143000B02909308316A0000130A1008A1183125F
:1014400072228A15B13003178D0000308F008A1187
:10145000031329248A1506308316A0000230A10048
:101460008A11831272228A15B43003178D0000305E
:101470008F008A11031329248A15C8308316A0000F
:101480008A11831243218A158618472AE90A6908B6
:101490001F3C03184D2A0130E9000A308316A000D2
:1014A0000230A1008A11831272228A156908F6009F
:1014B0000130FB008A118E248A150618602A682ADA
:1014C000C8308316A0008A11831243218A15442A4A
:1014D00008308316A0000130A1008A118312722205
:1014E0008A15B93003178D0000308F008A1103135D
:1014F00029248A150A308316A0000230A1008A111F
:10150000831272228A15BC3003178D0000308F00C1
:101510008A11031329248A15C8308316A0008A1162
:10152000831243218A158618962AEB0A6B080C3C15
:1015300003189C2A0130EB000A308316A000023009
:10154000A1008A11831272228A156B08F6000130FD
:10155000FB008A118E248A150618AF2AB72AC830D4
:101560008316A0008A11831243218A15932A08301A
:101570008316A0000130A1008A11831272228A15FD
:10158000BE3003178D0000308F008A110313292409
:101590008A1509308316A0000230A1008A11831237
:1015A00072228A15C13003178D0000308F008A1116
:1015B000031329248A15C8308316A0008A118312C8
:1015C00043218A158618E52AED0A6D08633C031845
:1015D000EA2AED010B308316A0000230A1008A1127
:1015E000831272228A156D08F6000130FB008A1101
:1015F0008E248A1506189C2B6508FC000A30FD0015
:101600008A1179248A15780EF600F030F6056508FF
:10161000FC000A30FD008A1179248A1577087607C4
:10162000E5006708FC000A30FD008A1179248A155C
:10163000780EF600F030F6056708FC000A30FD0071
:101640008A1179248A1577087607E7006908FC0073
:101650000A30FD008A1179248A15780EF600F030E0
:10166000F6056908FC000A30FD008A1179248A1504
:1016700077087607E9006B08FC000A30FD008A1144
:1016800079248A15780EF600F030F6056B08FC0018
:101690000A30FD008A1179248A1577087607EB0055
:1016A0006D08FC000A30FD008A1179248A15780E35
:1016B000F600F030F6056D08FC000A30FD008A11D6
:1016C00079248A1577087607ED000130F600650861
:1016D000FB008A116D238A150230F6006708FB00B3
:1016E0008A116D238A150330F6006F08FB008A11FA
:1016F0006D238A150430F6006908FB008A116D23FA
:101700008A150530F6006B08FB008A116D238A15D7
:101710000630F6006D08FB008A116D238A15F6016C
:10172000FB018A116D238A15C8308316A0008A1127
:10173000831243218A15A42BC8308316A0008A1176
:10174000831243218A15E22A0619CF2D15308316FC
:10175000A0000130A1008A11831272228A15C330C1
:1017600003178D0000308F008A11031329248A1576
:1017700015308316A0000230A1008A118312722254
:101780008A15CB3003178D0000308F008A110313A8
:1017900029248A15C8308316A0008A118312432198
:1017A0008A158A11D3248A158A117A258A158618F2
:1017B000DB2B0130A106211CF02B1E308316A0006C
:1017C0000230A1008A11831272228A15D6300317C3
:1017D0008D0000308F008A11031329248A15022CF2
:1017E0001E308316A0000230A1008A1183127222DB
:1017F0008A15D93003178D0000308F008A1103132A
:1018000029248A150619052C0D2CC8308316A00032
:101810008A11831243218A15D12B211CB72C153034
:101820008316A0000130A1008A11831272228A154A
:10183000DC3003178D0000308F008A110313292438
:101840008A1515308316A0000230A1008A11831278
:1018500072228A15E43003178D0000308F008A1140
:10186000031329248A15C8308316A0008A11831215
:1018700043218A158A11D3248A158A117A258A155B
:101880008618432CF00A70083B3C0318482CF001E2
:101890001E308316A0000230A1008A11831272222A
:1018A0008A157008F6000130FB008A118E248A1513
:1018B00006195B2C632CC8308316A0008A11831292
:1018C00043218A153A2C15308316A0000130A1005F
:1018D0008A11831272228A15EF3003178D000030AF
:1018E0008F008A11031329248A1515308316A0004E
:1018F0000230A1008A11831272228A15F830031770
:101900008D0000308F008A11031329248A15C830F6
:101910008316A0008A11831243218A158A11D324C9
:101920008A158A117A258A158618972CF10A71086A
:10193000173C03189C2CF1011E308316A0000230C6
:10194000A1008A11831272228A157108F6000130F3
:10195000FB008A118E248A150619AF2CB72CC830CB
:101960008316A0008A11831243218A158E2C15300C
:101970008316A0000130A1008A11831272228A15F9
:10198000033003178D0001308F008A1103132924BF
:101990008A1515308316A0000230A1008A11831227
:1019A00072228A150B3003178D0001308F008A11C7
:1019B000031329248A15C8308316A0008A118312C4
:1019C00043218A158A11D3248A158A117A258A150A
:1019D0008618EC2C0230A106A11C012D1E308316A6
:1019E000A0000230A1008A11831272228A151630DB
:1019F00003178D0001308F008A11031329248A15E3
:101A0000132D1E308316A0000230A1008A1183120C
:101A100072228A15193003178D0001308F008A1148
:101A2000031329248A150619162D1E2DC830831676
:101A3000A0008A11831243218A15E22CA11CC82D13
:101A400015308316A0000130A1008A118312722282
:101A50008A151C3003178D0001308F008A11031383
:101A600029248A1515308316A0000230A1008A119E
:101A7000831272228A15243003178D0001308F00E3
:101A80008A11031329248A15C8308316A0008A11ED
:101A9000831243218A158A11D3248A158A117A2543
:101AA0008A158618542DF20A72083B3C0318592DEA
:101AB000F2011E308316A0000230A1008A118312A9
:101AC00072228A157208F6000130FB008A118E24FA
:101AD0008A1506196C2D742DC8308316A0008A1142
:101AE000831243218A154B2D15308316A000013037
:101AF000A1008A11831272228A152F3003178D00DC
:101B000001308F008A11031329248A15153083169A
:101B1000A0000230A1008A11831272228A15383087
:101B200003178D0001308F008A11031329248A15B1
:101B3000C8308316A0008A11831243218A158A11A6
:101B4000D3248A158A117A258A158618A82DF30AB6
:101B50007308173C0318AD2DF3011E308316A00047
:101B60000230A1008A11831272228A157308F600CE
:101B70000130FB008A118E248A150619C02DC82D4C
:101B8000C8308316A0008A11831243218A159F2D25
:101B9000C8308316A0008A11831243218A15861843
:101BA000D42D8611F03097058A11D3248A158A1115
:101BB000342E8A158A117A258A158A11932E8A1550
:101BC00032308316A0008A11831243218A15B1286E
:101BD00063000A148A100A158207C929D329DD294E
:081BE000E729F129FB29052A80
:02400E00723FFF
:00000001FF
;PIC16F877A
;CRC=CF6B  CREATED="15-Jun-24 16:05"
